{
  "_format": "hh-sol-artifact-1",
  "contractName": "Dappazon",
  "sourceName": "contracts/Dappazon.sol",
  "abi": [
    {
      "inputs": [],
      "stateMutability": "nonpayable",
      "type": "constructor"
    },
    {
      "anonymous": false,
      "inputs": [
        {
          "indexed": false,
          "internalType": "address",
          "name": "buyer",
          "type": "address"
        },
        {
          "indexed": false,
          "internalType": "uint256",
          "name": "orderId",
          "type": "uint256"
        },
        {
          "indexed": false,
          "internalType": "uint256",
          "name": "itemId",
          "type": "uint256"
        }
      ],
      "name": "Buy",
      "type": "event"
    },
    {
      "anonymous": false,
      "inputs": [
        {
          "indexed": false,
          "internalType": "string",
          "name": "name",
          "type": "string"
        },
        {
          "indexed": false,
          "internalType": "uint256",
          "name": "cost",
          "type": "uint256"
        },
        {
          "indexed": false,
          "internalType": "uint256",
          "name": "quantity",
          "type": "uint256"
        }
      ],
      "name": "List",
      "type": "event"
    },
    {
      "inputs": [
        {
          "internalType": "uint256",
          "name": "_id",
          "type": "uint256"
        }
      ],
      "name": "buy",
      "outputs": [],
      "stateMutability": "payable",
      "type": "function"
    },
    {
      "inputs": [],
      "name": "deployer",
      "outputs": [
        {
          "internalType": "address",
          "name": "",
          "type": "address"
        }
      ],
      "stateMutability": "view",
      "type": "function"
    },
    {
      "inputs": [],
      "name": "getSender",
      "outputs": [
        {
          "internalType": "address",
          "name": "",
          "type": "address"
        }
      ],
      "stateMutability": "view",
      "type": "function"
    },
    {
      "inputs": [
        {
          "internalType": "uint256",
          "name": "",
          "type": "uint256"
        }
      ],
      "name": "items",
      "outputs": [
        {
          "internalType": "uint256",
          "name": "id",
          "type": "uint256"
        },
        {
          "internalType": "string",
          "name": "name",
          "type": "string"
        },
        {
          "internalType": "string",
          "name": "category",
          "type": "string"
        },
        {
          "internalType": "string",
          "name": "image",
          "type": "string"
        },
        {
          "internalType": "uint256",
          "name": "cost",
          "type": "uint256"
        },
        {
          "internalType": "uint256",
          "name": "rating",
          "type": "uint256"
        },
        {
          "internalType": "uint256",
          "name": "stock",
          "type": "uint256"
        }
      ],
      "stateMutability": "view",
      "type": "function"
    },
    {
      "inputs": [
        {
          "internalType": "uint256",
          "name": "_id",
          "type": "uint256"
        },
        {
          "internalType": "string",
          "name": "_name",
          "type": "string"
        },
        {
          "internalType": "string",
          "name": "_category",
          "type": "string"
        },
        {
          "internalType": "string",
          "name": "_image",
          "type": "string"
        },
        {
          "internalType": "uint256",
          "name": "_cost",
          "type": "uint256"
        },
        {
          "internalType": "uint256",
          "name": "_rating",
          "type": "uint256"
        },
        {
          "internalType": "uint256",
          "name": "_stock",
          "type": "uint256"
        }
      ],
      "name": "list",
      "outputs": [],
      "stateMutability": "nonpayable",
      "type": "function"
    },
    {
      "inputs": [
        {
          "internalType": "address",
          "name": "",
          "type": "address"
        }
      ],
      "name": "orderCount",
      "outputs": [
        {
          "internalType": "uint256",
          "name": "",
          "type": "uint256"
        }
      ],
      "stateMutability": "view",
      "type": "function"
    },
    {
      "inputs": [
        {
          "internalType": "address",
          "name": "",
          "type": "address"
        },
        {
          "internalType": "uint256",
          "name": "",
          "type": "uint256"
        }
      ],
      "name": "orders",
      "outputs": [
        {
          "internalType": "uint256",
          "name": "time",
          "type": "uint256"
        },
        {
          "components": [
            {
              "internalType": "uint256",
              "name": "id",
              "type": "uint256"
            },
            {
              "internalType": "string",
              "name": "name",
              "type": "string"
            },
            {
              "internalType": "string",
              "name": "category",
              "type": "string"
            },
            {
              "internalType": "string",
              "name": "image",
              "type": "string"
            },
            {
              "internalType": "uint256",
              "name": "cost",
              "type": "uint256"
            },
            {
              "internalType": "uint256",
              "name": "rating",
              "type": "uint256"
            },
            {
              "internalType": "uint256",
              "name": "stock",
              "type": "uint256"
            }
          ],
          "internalType": "struct Dappazon.Item",
          "name": "item",
          "type": "tuple"
        }
      ],
      "stateMutability": "view",
      "type": "function"
    },
    {
      "inputs": [],
      "name": "owner",
      "outputs": [
        {
          "internalType": "address",
          "name": "",
          "type": "address"
        }
      ],
      "stateMutability": "view",
      "type": "function"
    },
    {
      "inputs": [],
      "name": "withdraw",
      "outputs": [],
      "stateMutability": "nonpayable",
      "type": "function"
    }
  ],
  "bytecode": "0x608060405234801561001057600080fd5b50336000806101000a81548173ffffffffffffffffffffffffffffffffffffffff021916908373ffffffffffffffffffffffffffffffffffffffff16021790555061179c806100606000396000f3fe6080604052600436106100865760003560e01c80638da5cb5b116100595780638da5cb5b14610148578063bfb231d214610173578063d5f39488146101b6578063d96a094a146101e1578063eea8a7e8146101fd57610086565b80633ccfd60b1461008b5780635e01eb5a146100a2578063713d856b146100cd578063793b8c6d1461010a575b600080fd5b34801561009757600080fd5b506100a0610226565b005b3480156100ae57600080fd5b506100b7610318565b6040516100c49190610d5b565b60405180910390f35b3480156100d957600080fd5b506100f460048036038101906100ef9190610db6565b610320565b6040516101019190610dfc565b60405180910390f35b34801561011657600080fd5b50610131600480360381019061012c9190610e43565b610338565b60405161013f929190610fcc565b60405180910390f35b34801561015457600080fd5b5061015d610551565b60405161016a9190610d5b565b60405180910390f35b34801561017f57600080fd5b5061019a60048036038101906101959190610ffc565b610575565b6040516101ad9796959493929190611073565b60405180910390f35b3480156101c257600080fd5b506101cb61074f565b6040516101d89190610d5b565b60405180910390f35b6101fb60048036038101906101f69190610ffc565b610775565b005b34801561020957600080fd5b50610224600480360381019061021f919061122c565b610bc5565b005b60008054906101000a900473ffffffffffffffffffffffffffffffffffffffff1673ffffffffffffffffffffffffffffffffffffffff163373ffffffffffffffffffffffffffffffffffffffff161461027e57600080fd5b60008060009054906101000a900473ffffffffffffffffffffffffffffffffffffffff1673ffffffffffffffffffffffffffffffffffffffff16476040516102c590611353565b60006040518083038185875af1925050503d8060008114610302576040519150601f19603f3d011682016040523d82523d6000602084013e610307565b606091505b505090508061031557600080fd5b50565b600033905090565b60046020528060005260406000206000915090505481565b600360205281600052604060002060205280600052604060002060009150915050806000015490806001016040518060e00160405290816000820154815260200160018201805461038890611397565b80601f01602080910402602001604051908101604052809291908181526020018280546103b490611397565b80156104015780601f106103d657610100808354040283529160200191610401565b820191906000526020600020905b8154815290600101906020018083116103e457829003601f168201915b5050505050815260200160028201805461041a90611397565b80601f016020809104026020016040519081016040528092919081815260200182805461044690611397565b80156104935780601f1061046857610100808354040283529160200191610493565b820191906000526020600020905b81548152906001019060200180831161047657829003601f168201915b505050505081526020016003820180546104ac90611397565b80601f01602080910402602001604051908101604052809291908181526020018280546104d890611397565b80156105255780601f106104fa57610100808354040283529160200191610525565b820191906000526020600020905b81548152906001019060200180831161050857829003601f168201915b505050505081526020016004820154815260200160058201548152602001600682015481525050905082565b60008054906101000a900473ffffffffffffffffffffffffffffffffffffffff1681565b600260205280600052604060002060009150905080600001549080600101805461059e90611397565b80601f01602080910402602001604051908101604052809291908181526020018280546105ca90611397565b80156106175780601f106105ec57610100808354040283529160200191610617565b820191906000526020600020905b8154815290600101906020018083116105fa57829003601f168201915b50505050509080600201805461062c90611397565b80601f016020809104026020016040519081016040528092919081815260200182805461065890611397565b80156106a55780601f1061067a576101008083540402835291602001916106a5565b820191906000526020600020905b81548152906001019060200180831161068857829003601f168201915b5050505050908060030180546106ba90611397565b80601f01602080910402602001604051908101604052809291908181526020018280546106e690611397565b80156107335780601f1061070857610100808354040283529160200191610733565b820191906000526020600020905b81548152906001019060200180831161071657829003601f168201915b5050505050908060040154908060050154908060060154905087565b600160009054906101000a900473ffffffffffffffffffffffffffffffffffffffff1681565b6000600260008381526020019081526020016000206040518060e0016040529081600082015481526020016001820180546107af90611397565b80601f01602080910402602001604051908101604052809291908181526020018280546107db90611397565b80156108285780601f106107fd57610100808354040283529160200191610828565b820191906000526020600020905b81548152906001019060200180831161080b57829003601f168201915b5050505050815260200160028201805461084190611397565b80601f016020809104026020016040519081016040528092919081815260200182805461086d90611397565b80156108ba5780601f1061088f576101008083540402835291602001916108ba565b820191906000526020600020905b81548152906001019060200180831161089d57829003601f168201915b505050505081526020016003820180546108d390611397565b80601f01602080910402602001604051908101604052809291908181526020018280546108ff90611397565b801561094c5780601f106109215761010080835404028352916020019161094c565b820191906000526020600020905b81548152906001019060200180831161092f57829003601f168201915b5050505050815260200160048201548152602001600582015481526020016006820154815250509050806080015134101561098657600080fd5b60008160c001511161099757600080fd5b60006040518060400160405280428152602001838152509050600460003373ffffffffffffffffffffffffffffffffffffffff1673ffffffffffffffffffffffffffffffffffffffff1681526020019081526020016000206000815480929190610a00906113f7565b919050555080600360003373ffffffffffffffffffffffffffffffffffffffff1673ffffffffffffffffffffffffffffffffffffffff1681526020019081526020016000206000600460003373ffffffffffffffffffffffffffffffffffffffff1673ffffffffffffffffffffffffffffffffffffffff16815260200190815260200160002054815260200190815260200160002060008201518160000155602082015181600101600082015181600001556020820151816001019081610ac791906115eb565b506040820151816002019081610add91906115eb565b506060820151816003019081610af391906115eb565b506080820151816004015560a0820151816005015560c08201518160060155505090505060018260c00151610b2891906116bd565b60026000858152602001908152602001600020600601819055507f1cbc5ab135991bd2b6a4b034a04aa2aa086dac1371cb9b16b8b5e2ed6b036bed33600460003373ffffffffffffffffffffffffffffffffffffffff1673ffffffffffffffffffffffffffffffffffffffff168152602001908152602001600020548460000151604051610bb8939291906116f1565b60405180910390a1505050565b60008054906101000a900473ffffffffffffffffffffffffffffffffffffffff1673ffffffffffffffffffffffffffffffffffffffff163373ffffffffffffffffffffffffffffffffffffffff1614610c1d57600080fd5b60006040518060e0016040528089815260200188815260200187815260200186815260200185815260200184815260200183815250905080600260008a8152602001908152602001600020600082015181600001556020820151816001019081610c8791906115eb565b506040820151816002019081610c9d91906115eb565b506060820151816003019081610cb391906115eb565b506080820151816004015560a0820151816005015560c082015181600601559050507ffdbe2a012c10ec01592653978eaa09b5ca60b143a0e617505b2ebcbd911ec5b8878584604051610d0893929190611728565b60405180910390a15050505050505050565b600073ffffffffffffffffffffffffffffffffffffffff82169050919050565b6000610d4582610d1a565b9050919050565b610d5581610d3a565b82525050565b6000602082019050610d706000830184610d4c565b92915050565b6000604051905090565b600080fd5b600080fd5b610d9381610d3a565b8114610d9e57600080fd5b50565b600081359050610db081610d8a565b92915050565b600060208284031215610dcc57610dcb610d80565b5b6000610dda84828501610da1565b91505092915050565b6000819050919050565b610df681610de3565b82525050565b6000602082019050610e116000830184610ded565b92915050565b610e2081610de3565b8114610e2b57600080fd5b50565b600081359050610e3d81610e17565b92915050565b60008060408385031215610e5a57610e59610d80565b5b6000610e6885828601610da1565b9250506020610e7985828601610e2e565b9150509250929050565b610e8c81610de3565b82525050565b600081519050919050565b600082825260208201905092915050565b60005b83811015610ecc578082015181840152602081019050610eb1565b60008484015250505050565b6000601f19601f8301169050919050565b6000610ef482610e92565b610efe8185610e9d565b9350610f0e818560208601610eae565b610f1781610ed8565b840191505092915050565b600060e083016000830151610f3a6000860182610e83565b5060208301518482036020860152610f528282610ee9565b91505060408301518482036040860152610f6c8282610ee9565b91505060608301518482036060860152610f868282610ee9565b9150506080830151610f9b6080860182610e83565b5060a0830151610fae60a0860182610e83565b5060c0830151610fc160c0860182610e83565b508091505092915050565b6000604082019050610fe16000830185610ded565b8181036020830152610ff38184610f22565b90509392505050565b60006020828403121561101257611011610d80565b5b600061102084828501610e2e565b91505092915050565b600082825260208201905092915050565b600061104582610e92565b61104f8185611029565b935061105f818560208601610eae565b61106881610ed8565b840191505092915050565b600060e082019050611088600083018a610ded565b818103602083015261109a818961103a565b905081810360408301526110ae818861103a565b905081810360608301526110c2818761103a565b90506110d16080830186610ded565b6110de60a0830185610ded565b6110eb60c0830184610ded565b98975050505050505050565b600080fd5b600080fd5b7f4e487b7100000000000000000000000000000000000000000000000000000000600052604160045260246000fd5b61113982610ed8565b810181811067ffffffffffffffff8211171561115857611157611101565b5b80604052505050565b600061116b610d76565b90506111778282611130565b919050565b600067ffffffffffffffff82111561119757611196611101565b5b6111a082610ed8565b9050602081019050919050565b82818337600083830152505050565b60006111cf6111ca8461117c565b611161565b9050828152602081018484840111156111eb576111ea6110fc565b5b6111f68482856111ad565b509392505050565b600082601f830112611213576112126110f7565b5b81356112238482602086016111bc565b91505092915050565b600080600080600080600060e0888a03121561124b5761124a610d80565b5b60006112598a828b01610e2e565b975050602088013567ffffffffffffffff81111561127a57611279610d85565b5b6112868a828b016111fe565b965050604088013567ffffffffffffffff8111156112a7576112a6610d85565b5b6112b38a828b016111fe565b955050606088013567ffffffffffffffff8111156112d4576112d3610d85565b5b6112e08a828b016111fe565b94505060806112f18a828b01610e2e565b93505060a06113028a828b01610e2e565b92505060c06113138a828b01610e2e565b91505092959891949750929550565b600081905092915050565b50565b600061133d600083611322565b91506113488261132d565b600082019050919050565b600061135e82611330565b9150819050919050565b7f4e487b7100000000000000000000000000000000000000000000000000000000600052602260045260246000fd5b600060028204905060018216806113af57607f821691505b6020821081036113c2576113c1611368565b5b50919050565b7f4e487b7100000000000000000000000000000000000000000000000000000000600052601160045260246000fd5b600061140282610de3565b91507fffffffffffffffffffffffffffffffffffffffffffffffffffffffffffffffff8203611434576114336113c8565b5b600182019050919050565b60008190508160005260206000209050919050565b60006020601f8301049050919050565b600082821b905092915050565b6000600883026114a17fffffffffffffffffffffffffffffffffffffffffffffffffffffffffffffffff82611464565b6114ab8683611464565b95508019841693508086168417925050509392505050565b6000819050919050565b60006114e86114e36114de84610de3565b6114c3565b610de3565b9050919050565b6000819050919050565b611502836114cd565b61151661150e826114ef565b848454611471565b825550505050565b600090565b61152b61151e565b6115368184846114f9565b505050565b5b8181101561155a5761154f600082611523565b60018101905061153c565b5050565b601f82111561159f576115708161143f565b61157984611454565b81016020851015611588578190505b61159c61159485611454565b83018261153b565b50505b505050565b600082821c905092915050565b60006115c2600019846008026115a4565b1980831691505092915050565b60006115db83836115b1565b9150826002028217905092915050565b6115f482610e92565b67ffffffffffffffff81111561160d5761160c611101565b5b6116178254611397565b61162282828561155e565b600060209050601f8311600181146116555760008415611643578287015190505b61164d85826115cf565b8655506116b5565b601f1984166116638661143f565b60005b8281101561168b57848901518255600182019150602085019450602081019050611666565b868310156116a857848901516116a4601f8916826115b1565b8355505b6001600288020188555050505b505050505050565b60006116c882610de3565b91506116d383610de3565b92508282039050818111156116eb576116ea6113c8565b5b92915050565b60006060820190506117066000830186610d4c565b6117136020830185610ded565b6117206040830184610ded565b949350505050565b60006060820190508181036000830152611742818661103a565b90506117516020830185610ded565b61175e6040830184610ded565b94935050505056fea264697066735822122063e05268f4a4033f70a9fb08066af5102073dfa6ae9d278d6083efe19cbc060c64736f6c63430008110033",
  "linkReferences": {},
  "deployedLinkReferences": {}
}